{
  "_format": "hh-sol-artifact-1",
  "contractName": "FrontendProject",
  "sourceName": "contracts/FrontendProject.sol",
  "abi": [
    {
      "anonymous": false,
      "inputs": [
        {
          "indexed": true,
          "internalType": "address",
          "name": "sender",
          "type": "address"
        },
        {
          "indexed": false,
          "internalType": "uint8",
          "name": "val",
          "type": "uint8"
        }
      ],
      "name": "SetAmount",
      "type": "event"
    },
    {
      "anonymous": false,
      "inputs": [
        {
          "indexed": true,
          "internalType": "address",
          "name": "sender",
          "type": "address"
        },
        {
          "indexed": false,
          "internalType": "string",
          "name": "names",
          "type": "string"
        }
      ],
      "name": "SetName",
      "type": "event"
    },
    {
      "inputs": [],
      "name": "amount",
      "outputs": [
        {
          "internalType": "uint8",
          "name": "",
          "type": "uint8"
        }
      ],
      "stateMutability": "view",
      "type": "function"
    },
    {
      "inputs": [],
      "name": "getAmount",
      "outputs": [
        {
          "internalType": "uint256",
          "name": "",
          "type": "uint256"
        }
      ],
      "stateMutability": "view",
      "type": "function"
    },
    {
      "inputs": [],
      "name": "getName",
      "outputs": [
        {
          "internalType": "string",
          "name": "",
          "type": "string"
        }
      ],
      "stateMutability": "view",
      "type": "function"
    },
    {
      "inputs": [],
      "name": "name",
      "outputs": [
        {
          "internalType": "string",
          "name": "",
          "type": "string"
        }
      ],
      "stateMutability": "view",
      "type": "function"
    },
    {
      "inputs": [
        {
          "internalType": "uint8",
          "name": "_myAmount",
          "type": "uint8"
        }
      ],
      "name": "setAmount",
      "outputs": [],
      "stateMutability": "nonpayable",
      "type": "function"
    },
    {
      "inputs": [
        {
          "internalType": "string",
          "name": "_myName",
          "type": "string"
        }
      ],
      "name": "setName",
      "outputs": [],
      "stateMutability": "nonpayable",
      "type": "function"
    }
  ],
  "bytecode": "0x608060405234801561001057600080fd5b50610949806100206000396000f3fe608060405234801561001057600080fd5b50600436106100625760003560e01c806306fdde031461006757806317d7de7c146100855780632cae9e67146100a3578063aa8c217c146100bf578063c47f0027146100dd578063d321fe29146100f9575b600080fd5b61006f610117565b60405161007c91906103bd565b60405180910390f35b61008d6101a5565b60405161009a91906103bd565b60405180910390f35b6100bd60048036038101906100b8919061042c565b610237565b005b6100c76102a2565b6040516100d49190610468565b60405180910390f35b6100f760048036038101906100f291906105b8565b6102b3565b005b610101610314565b60405161010e919061061a565b60405180910390f35b6001805461012490610664565b80601f016020809104026020016040519081016040528092919081815260200182805461015090610664565b801561019d5780601f106101725761010080835404028352916020019161019d565b820191906000526020600020905b81548152906001019060200180831161018057829003601f168201915b505050505081565b6060600180546101b490610664565b80601f01602080910402602001604051908101604052809291908181526020018280546101e090610664565b801561022d5780601f106102025761010080835404028352916020019161022d565b820191906000526020600020905b81548152906001019060200180831161021057829003601f168201915b5050505050905090565b806000806101000a81548160ff021916908360ff1602179055503373ffffffffffffffffffffffffffffffffffffffff167f914db7c2a8cc7054dd1ce6e1c4bd4e1a2e630a6265a35a25542c72457c3864df826040516102979190610468565b60405180910390a250565b60008054906101000a900460ff1681565b80600190816102c29190610841565b503373ffffffffffffffffffffffffffffffffffffffff167f5b55a57845097b0b4cf682f6d089fe6bad81dc28242927eca133f4b1c4d28b448260405161030991906103bd565b60405180910390a250565b60008060009054906101000a900460ff1660ff16905090565b600081519050919050565b600082825260208201905092915050565b60005b8381101561036757808201518184015260208101905061034c565b60008484015250505050565b6000601f19601f8301169050919050565b600061038f8261032d565b6103998185610338565b93506103a9818560208601610349565b6103b281610373565b840191505092915050565b600060208201905081810360008301526103d78184610384565b905092915050565b6000604051905090565b600080fd5b600080fd5b600060ff82169050919050565b610409816103f3565b811461041457600080fd5b50565b60008135905061042681610400565b92915050565b600060208284031215610442576104416103e9565b5b600061045084828501610417565b91505092915050565b610462816103f3565b82525050565b600060208201905061047d6000830184610459565b92915050565b600080fd5b600080fd5b7f4e487b7100000000000000000000000000000000000000000000000000000000600052604160045260246000fd5b6104c582610373565b810181811067ffffffffffffffff821117156104e4576104e361048d565b5b80604052505050565b60006104f76103df565b905061050382826104bc565b919050565b600067ffffffffffffffff8211156105235761052261048d565b5b61052c82610373565b9050602081019050919050565b82818337600083830152505050565b600061055b61055684610508565b6104ed565b90508281526020810184848401111561057757610576610488565b5b610582848285610539565b509392505050565b600082601f83011261059f5761059e610483565b5b81356105af848260208601610548565b91505092915050565b6000602082840312156105ce576105cd6103e9565b5b600082013567ffffffffffffffff8111156105ec576105eb6103ee565b5b6105f88482850161058a565b91505092915050565b6000819050919050565b61061481610601565b82525050565b600060208201905061062f600083018461060b565b92915050565b7f4e487b7100000000000000000000000000000000000000000000000000000000600052602260045260246000fd5b6000600282049050600182168061067c57607f821691505b60208210810361068f5761068e610635565b5b50919050565b60008190508160005260206000209050919050565b60006020601f8301049050919050565b600082821b905092915050565b6000600883026106f77fffffffffffffffffffffffffffffffffffffffffffffffffffffffffffffffff826106ba565b61070186836106ba565b95508019841693508086168417925050509392505050565b6000819050919050565b600061073e61073961073484610601565b610719565b610601565b9050919050565b6000819050919050565b61075883610723565b61076c61076482610745565b8484546106c7565b825550505050565b600090565b610781610774565b61078c81848461074f565b505050565b5b818110156107b0576107a5600082610779565b600181019050610792565b5050565b601f8211156107f5576107c681610695565b6107cf846106aa565b810160208510156107de578190505b6107f26107ea856106aa565b830182610791565b50505b505050565b600082821c905092915050565b6000610818600019846008026107fa565b1980831691505092915050565b60006108318383610807565b9150826002028217905092915050565b61084a8261032d565b67ffffffffffffffff8111156108635761086261048d565b5b61086d8254610664565b6108788282856107b4565b600060209050601f8311600181146108ab5760008415610899578287015190505b6108a38582610825565b86555061090b565b601f1984166108b986610695565b60005b828110156108e1578489015182556001820191506020850194506020810190506108bc565b868310156108fe57848901516108fa601f891682610807565b8355505b6001600288020188555050505b50505050505056fea2646970667358221220896be012fa942277785c462f38eb7f48a0cafe6530dfd4d005d987c3ae21071064736f6c63430008110033",
  "linkReferences": {},
  "deployedLinkReferences": {}
}